{
  "_format": "hh-sol-artifact-1",
  "contractName": "HelloWorld",
  "sourceName": "contracts/HelloWorld.sol",
  "abi": [
    {
      "anonymous": false,
      "inputs": [
        {
          "indexed": false,
          "internalType": "address",
          "name": "addr",
          "type": "address"
        },
        {
          "indexed": false,
          "internalType": "string",
          "name": "message",
          "type": "string"
        }
      ],
      "name": "NewText",
      "type": "event"
    },
    {
      "inputs": [],
      "name": "getText",
      "outputs": [
        {
          "internalType": "string",
          "name": "",
          "type": "string"
        }
      ],
      "stateMutability": "view",
      "type": "function"
    },
    {
      "inputs": [
        {
          "internalType": "string",
          "name": "_text",
          "type": "string"
        }
      ],
      "name": "updateText",
      "outputs": [],
      "stateMutability": "nonpayable",
      "type": "function"
    }
  ],
  "bytecode": "0x608060405234801561001057600080fd5b5061052e806100206000396000f3fe608060405234801561001057600080fd5b50600436106100365760003560e01c80631e1aa0c51461003b578063e00fe2eb14610057575b600080fd5b61005560048036038101906100509190610265565b610075565b005b61005f6100c8565b60405161006c919061031e565b60405180910390f35b806000908051906020019061008b92919061015a565b507f4a484b0f4cdce6d14bc38a52ff587fc6ccc5f09e964b54420a5da002abbf854c33826040516100bd9291906102ee565b60405180910390a150565b6060600080546100d790610426565b80601f016020809104026020016040519081016040528092919081815260200182805461010390610426565b80156101505780601f1061012557610100808354040283529160200191610150565b820191906000526020600020905b81548152906001019060200180831161013357829003601f168201915b5050505050905090565b82805461016690610426565b90600052602060002090601f01602090048101928261018857600085556101cf565b82601f106101a157805160ff19168380011785556101cf565b828001600101855582156101cf579182015b828111156101ce5782518255916020019190600101906101b3565b5b5090506101dc91906101e0565b5090565b5b808211156101f95760008160009055506001016101e1565b5090565b600061021061020b84610365565b610340565b90508281526020810184848401111561022857600080fd5b6102338482856103e4565b509392505050565b600082601f83011261024c57600080fd5b813561025c8482602086016101fd565b91505092915050565b60006020828403121561027757600080fd5b600082013567ffffffffffffffff81111561029157600080fd5b61029d8482850161023b565b91505092915050565b6102af816103b2565b82525050565b60006102c082610396565b6102ca81856103a1565b93506102da8185602086016103f3565b6102e3816104e7565b840191505092915050565b600060408201905061030360008301856102a6565b818103602083015261031581846102b5565b90509392505050565b6000602082019050818103600083015261033881846102b5565b905092915050565b600061034a61035b565b90506103568282610458565b919050565b6000604051905090565b600067ffffffffffffffff8211156103805761037f6104b8565b5b610389826104e7565b9050602081019050919050565b600081519050919050565b600082825260208201905092915050565b60006103bd826103c4565b9050919050565b600073ffffffffffffffffffffffffffffffffffffffff82169050919050565b82818337600083830152505050565b60005b838110156104115780820151818401526020810190506103f6565b83811115610420576000848401525b50505050565b6000600282049050600182168061043e57607f821691505b6020821081141561045257610451610489565b5b50919050565b610461826104e7565b810181811067ffffffffffffffff821117156104805761047f6104b8565b5b80604052505050565b7f4e487b7100000000000000000000000000000000000000000000000000000000600052602260045260246000fd5b7f4e487b7100000000000000000000000000000000000000000000000000000000600052604160045260246000fd5b6000601f19601f830116905091905056fea2646970667358221220dc5f9a70d547663de1c73174a18c134dc5b6c2c3d0539a0973fedf54d19bc0cf64736f6c63430008040033",
  "linkReferences": {},
  "deployedLinkReferences": {}
}